:020000040800F2
:10000000F80B0020450100086D0300086503000897
:10001000690300088D010008170B000800000000AC
:100020000000000000000000000000002D05000896
:100030004D02000800000000F503000865060008F6
:100040005F0100085F0100085F0100085F01000810
:100050005F0100085F0100085F0100085F01000800
:100060005F0100085F0100085F0100085F010008F0
:100070005F0100085F0100085F0100085F010008E0
:100080005F0100085F0100085F0100085F010008D0
:100090005F0100085F0100085F0100085F010008C0
:1000A0005F0100085F0100085F0100085F010008B0
:1000B0005F0100085F0100085F0100085F010008A0
:1000C0005F0100085F0100085F0100085F01000890
:1000D0005F0100085F0100085F0100085F01000880
:1000E0005F0100085F0100085F0100085F01000870
:1000F0005F0100085F0100085F0100085F01000860
:100100005F0100085F0100085F0100085F0100084F
:10011000050700085F0100085F0100085F01000893
:100120005F0100085F0100085F0100085F0100082F
:10013000DFF80CD000F018F800480047390B000831
:10014000F80B00200648804706480047FEE7FEE718
:10015000FEE7FEE7FEE7FEE7FEE7FEE7FEE7FEE777
:10016000A506000831010008064C074D06E0E068CE
:1001700040F0010394E8070098471034AC42F6D3EE
:10018000FFF7DAFF880B0008A80B000800BFFEE7A6
:1001900021B1026842F00102026004E002684FF6F9
:1001A000FE731A400260704710B50022026847F6DD
:1001B000F0739A430C6A8B6823430C6923434C69A0
:1001C00023438C692343CC6923434C6A23438C6AC1
:1001D00023431A430260CB6843600B6883604B681B
:1001E000C36010BD4160704770B504460D460021E4
:1001F0002046FFF7CDFF29462046FFF7F3FF0121F8
:100200002046FFF7C5FF70BDF0B58BB007460C4622
:1002100015461E460121084600F0EEF800940195AF
:10022000102002900396002004908020059000206A
:100230000690079008904FF48050099000200A9093
:1002400069463846FFF7B0FF0BB0F0BD70472DE9A7
:10025000F04102460025002600200023002400274C
:1002600091F803C00CF00F0591F803C00CF0100CCE
:10027000BCF1000F03D091F802C04CEA050591F8DB
:1002800000C0BCF1000F31D0146800202BE04FF00B
:10029000010C0CFA00F3B1F800C00CEA03069E4210
:1002A00020D183004FF00F0C0CFA03F7BC4305FA82
:1002B00003FC4CEA040491F803C0BCF1280F06D1FA
:1002C0004FF0010C0CFA00FCC2F814C00AE091F8DF
:1002D00003C0BCF1480F05D14FF0010C0CFA00FC33
:1002E000C2F810C0401C0828D1D31460B1F800C077
:1002F000BCF1FF0F34DD546800202EE000F1080C43
:100300004FF0010808FA0CF3B1F800C00CEA03063C
:100310009E4221D183004FF00F0C0CFA03F7BC432F
:1003200005FA03FC4CEA040491F803C0BCF1280F61
:1003300005D100F1080C08FA0CF8C2F8148091F805
:1003400003C0BCF1480F07D100F1080C4FF00108C1
:1003500008FA0CF8C2F81080401C0828CED354606C
:10036000BDE8F08100BFFEE700BFFEE77047000078
:1003700070B5002100230F22C47804B3154C246803
:1003800004F4E064C4F5E064210AC1F10403CA4046
:10039000447804FA03F184781440214309010E4C97
:1003A0000678A155047804F01F050124AC400578B7
:1003B0006D11AD0005F1E025C5F8004109E00478B4
:1003C00004F01F050124AC40044D0678761145F871
:1003D000264070BD0CED00E000E400E080E100E0AC
:1003E00002490143024A1160704700000000FA050B
:1003F0000CED00E07047000029B1064A5269024343
:10040000044B5A6104E0034A52698243014B5A612A
:10041000704700000010024029B1064AD269024329
:10042000044BDA6104E0034AD2698243014BDA618A
:10043000704700000010024029B1064A9269024349
:10044000044B9A6104E0034A92698243014B9A612A
:10045000704700000010024030B500210022002447
:1004600000232D4D6D6805F00C0121B1042905D044
:10047000082923D105E0294D056022E0274D0560BC
:100480001FE0254D6D6805F47012234D6D6805F46D
:100490008034022505EB92421CB9214D554305607D
:1004A0000BE01D4D6D6805F400351DB11C4D554325
:1004B000056002E0194D5543056002E0174D0560E7
:1004C00000BF00BF144D6D6805F0F0010909154D1E
:1004D0006B5C0568DD4045600F4D6D6805F4E061BB
:1004E000090A104D6B5C4568DD4085600A4D6D68FA
:1004F00005F46051C90A0B4D6B5C4568DD40C56071
:10050000054D6D6805F44041890B074D6B5CC5686E
:10051000B5FBF3F5056130BD0010024000127A0012
:1005200000093D000100002011000020704700007C
:10053000AA22074B1A70002105E0054A12780270C2
:10054000401C4A1C91B2B1F5FA6FF6DB704700000F
:100550000000002010B500F001F810BD0CB500201F
:10056000019000903348006840F4803031490860C1
:1005700000BF3048006800F4003000900198401C33
:100580000190009818B90198B0F5A06FF1D12948F1
:10059000006800F4003010B10120009001E000205C
:1005A00000900098012843D12348006840F01000D3
:1005B000214908600846006820F0030008600846EA
:1005C000006840F0020008601A4840681949486015
:1005D0000846406848600846406840F480604860CB
:1005E0000846406820F47C1048600846406840F4A3
:1005F000E81048600846006840F08070086000BF5E
:100600000C48006800F000700028F9D009484068E4
:1006100020F00300074948600846406840F00200A7
:10062000486000BF0348406800F00C000828F9D17A
:100630000CBD00000010024000200240042808D138
:100640004FF0E021096941F004014FF0E02211610F
:1006500007E04FF0E021096921F004014FF0E022AA
:10066000116170477047000010B504466FF0040038
:10067000FFF7E4FFE11704EB5171C1F3C701074A2B
:1006800011701046007800EB4001C1EBC0104FF62E
:10069000FF7101EAC0000249088010BD1600002069
:1006A0001800002010B51348006840F001001149FF
:1006B000086008464068104908400E4948600846EE
:1006C00000680E4908400B4908600846006820F49D
:1006D000802008600846406820F4FE0048604FF41F
:1006E0001F008860FFF736FF4FF000600449086084
:1006F00010BD0000001002400000FFF8FFFFF6FEF2
:1007000008ED00E010B540F225512B4800F03FF90C
:1007100000284CD0284800F0F5F928490880084600
:100720000188254800F0F3F900BF4021224800F07D
:1007300021F90128F9D1214800880A2832D2DFE8BE
:1007400000F005090E13181D2125292D00201C4934
:10075000086027E040F283601949086022E042F215
:100760001070174908601DE044F6206014490860C5
:1007700018E049F640401249086013E0114810495A
:1007800008600FE010480E4908600BE00F480C4964
:10079000086007E00E480A49086003E00D48084970
:1007A000086000BF00BF0648006800F06DF84021F7
:1007B000014800F0C1F810BD004C00401C000020B2
:1007C0002000002080380100A0860100F0490200CE
:1007D0000B8B0200400D030010B586B004460121CA
:1007E0001020FFF729FE0121C804FFF715FE4FF482
:1007F0008060ADF8140003208DF8160018208DF8E5
:10080000170005A91E48FFF722FD4FF40060ADF860
:10081000140004208DF8170005A91948FFF717FDEB
:1008200001940020ADF80800ADF80A00ADF80C0006
:10083000ADF810000C20ADF80E0001A9114800F031
:10084000F5F801210F4800F080F840210D4800F034
:1008500073F8012240F225510A4800F0C2F8342012
:100860008DF8000003208DF801008DF802000120B2
:100870008DF803006846FFF77BFD06B010BD000051
:1008800000100140004C004010B586B00446012124
:100890000420FFF7D1FD01218803FFF7CDFD4FF4C0
:1008A0000070ADF8140003208DF8160018208DF8A4
:1008B000170005A91E48FFF7CAFC4FF48060ADF889
:1008C000140004208DF8170005A91948FFF7BFFC94
:1008D00001940020ADF80800ADF80A00ADF80C0056
:1008E000ADF810000C20ADF80E0001A9114800F081
:1008F0009DF801210F4800F028F840210D4800F034
:100900001BF8012240F225510A4800F06AF8252020
:100910008DF8000003208DF801008DF80200012001
:100920008DF803006846FFF723FD06B010BD0000F8
:10093000000801400038014001F40072B2F5007F68
:1009400000D100BFCA430280704721B1828942F4BE
:100950000052828104E082894DF6FF731A40828141
:1009600070471AB1838A0B43838202E0838A8B43E8
:100970008382704702460020B1F5007F00D100BF9E
:1009800013880B400BB1012000E00020704770B5C8
:100990000246002400230025002040F66A16B142DA
:1009A00000D100BFC1F3421501F01F03012606FA72
:1009B00003F3012D02D19689334006E0022D02D1C6
:1009C000168A334001E0968A33400C12012606FA5B
:1009D00004F41688344013B10CB1012000E000206B
:1009E00070BDF0B50346002400260025002040F627
:1009F0006A17B94200D100BF1846C1F3421401F092
:100A00001F06012707FA06F5012C01D10C3004E07E
:100A1000022C01D1103000E014301AB107682F43C6
:100A2000076002E00768AF430760F0BD2DE9F047BB
:100A300086B005460E460024A24600BFA146002708
:100A4000B08900B100BF2F462C8A4CF6FF700440DD
:100A5000F08804432C82AC894EF6F3100440B08831
:100A600031890843718908430443AC81AC8A4FF64D
:100A7000FF400440B0890443AC8201A8FFF7ECFCBE
:100A80001F48874202D1DDF810A001E0DDF80CA07C
:100A9000A88900F4004040B10AEBCA0000EB0A103C
:100AA00031684900B0FBF1F807E00AEBCA0000EB3F
:100AB0000A1031688900B0FBF1F86420B8FBF0F04F
:100AC00004012009642101FB1089A88900F4004079
:100AD00040B1322000EBC900B0FBF1F000F007009C
:100AE000044308E0322000EB09106421B0FBF1F070
:100AF00000F00F0004432C8106B0BDE8F087000031
:100B00000038014001468888C0F308007047C1F3EF
:100B100008028280704700BFFEE702E008C8121F8B
:100B200008C1002AFAD170477047002001E001C1D6
:100B3000121F002AFBD170474820FFF795FD4FF4A4
:100B4000A060FFF74DFC4FF41650FFF745FE4FF441
:100B5000FA630A4A0A490B48FFF756FB0748FFF7B2
:100B6000E7FC0AE0012280210548001FFFF7F9FE9B
:100B70004FF4FA610348FFF737FBF3E72400002046
:100B80000438014044000240A80B00080000002087
:100B9000240000001A0B0008CC0B000824000020E1
:100BA000D40B00002A0B0008000000000001020323
:100BB00004010203040607080902040608000000F5
:0C0BC00000000000000000000000000029
:0400000508000131BD
:00000001FF
